:100000000C94B3000C94D4000C94D4000C94D40041
:100010000C94D4000C94B6020C9491020C94D4006D
:100020000C94D4000C94D4000C94D4000C94D40000
:100030000C94D4000C94D4000C94D4000C94D400F0
:100040000C94D4000C94D4000C94D4000C94D400E0
:100050000C94D4000C94D4000C94D4000C94D400D0
:100060000C94D4000C94D4000C94D4000C94D400C0
:100070000C94D4000C94D4000C94D4000C94D400B0
:100080000C94D4000C94D4000C94D4000C94D400A0
:100090000C94D4000C94D4000C94D4000C94D40090
:1000A0000C94D4000C94D4000C94D4000C94D40080
:1000B0000C94D4000C94D4000C94D4000C94D40070
:1000C0000C94D4000C94D4000C94D4000C94D40060
:1000D0000C94D4000C94D4000C94D4000C94D40050
:1000E0000C94D40007634236B79BD8A71A396856D8
:1000F00018AEBAAB558C1D3CB7CC5763BD6DEDFD4A
:10010000753EF6177231BF000000803F0800000006
:10011000BE922449123EABAAAA2ABECDCCCC4C3EFC
:1001200000000080BEABAAAAAA3E00000000BF00EB
:100130000000803F0000000000084178D3BB4387E7
:10014000D1133D190E3CC3BD4282AD2B3E68EC82FB
:1001500076BED98FE1A93E4C80EFFFBE01C4FF7F80
:100160003F000000000011241FBECFEFD1E2DEBF30
:10017000CDBF00E00CBF13E0A0E0B2E0ECE2FDE296
:1001800000E00BBF02C007900D92AA30B107D9F76B
:1001900013E0AAE0B3E001C01D92A532B107E1F778
:1001A0000E94FB0C0C9494160C94000086E69EE0D2
:1001B000FC013197F1F74098419840E348B9429AE1
:1001C00020E038E4F9013197F1F74298FC013197CA
:1001D000F1F74098419848B9429AF9013197F1F7FF
:1001E0004298FC013197F1F74098419848B9429AFA
:1001F000F9013197F1F742980197F1F7409841984A
:1002000080E288B9429AC9010197F1F742980895AE
:1002100098B19F7098B928B1982F907F922B98B978
:1002200040984198429A20E038E4F9013197F1F77B
:10023000429898B19F7098B998B18295807F982B19
:1002400098B940984198429AC9010197F1F74298AC
:1002500008950E94D60086E69EE00197F1F788E2B5
:100260000E94080181E00E94080186E00E940801C6
:100270008EE00E94080180E80E940801089598B16C
:100280009F7098B928B1982F907F922B98B9409A77
:100290004198429A20E038E4F9013197F1F7429809
:1002A00098B19F7098B998B18295807F982B98B932
:1002B000409A4198429AC9010197F1F742980895EE
:1002C00080E80E9408010895CF93DF93EC0103C0FA
:1002D0000E943F01219688818823D1F7DF91CF9139
:1002E0000895823069F0833018F48130A9F405C094
:1002F000833049F0843081F40BC0862F815805C0CB
:10030000862F815402C0862F8D560E9408010895C1
:10031000862F8D520E94080108950F931F93CF934B
:10032000DF938A01E901882311F0662319F40E9402
:10033000600102C00E947101C530D10571F4C8018D
:1003400060E177E20E94D213CB01C096909319032B
:10035000809318030E943F0105C0C430D10511F0FD
:1003600080E016C0C80168EE73E00E94D213CB0192
:1003700060931A0390931B036AE070E00E94D2130B
:10038000C09690932403809323030E943F0181E051
:10039000C330D10521F0813011F080E016C0C801D2
:1003A00064E670E00E94D213CB0160931A0390932D
:1003B0001B036AE070E00E94D213C0969093200362
:1003C00080931F030E943F0181E0C230D10521F0DC
:1003D000813011F080E016C0C8016AE070E00E9430
:1003E000D213CB0160931A0390931B036AE070E071
:1003F0000E94D213C09690931E0380931D030E9407
:100400003F0181E0C130D10511F0813061F4C801B4
:100410006AE070E00E94D213C0969093220380930A
:1004200021030E943F0126971CF085E40E943F01B2
:10043000DF91CF911F910F9108958FE590E09093F8
:10044000C5008093C40086E08093C20088E1809359
:10045000C1000895982F8091C00085FFFCCF909334
:10046000C600089587B1876F87B988B1807888B949
:1004700008953B9A4398089586B1886088B9089595
:1004800086B1877F88B9089510BA11BA1092070112
:1004900010920801089581B18F6081B982B1807F87
:1004A00082B9EAE0F1E0808188618083EBE0F1E0ED
:1004B00080818861808308956C98749A08956D98FE
:1004C000759A089510BA11BA109207011092080196
:1004D00081B18F6081B982B1807F82B9EAE0F1E0B9
:1004E000808188618083EBE0F1E080818861808396
:1004F0006C98749A6D98759A3B9A43980895F894FD
:10050000EAE6F0E0808182608083EC9A7894089536
:10051000F894EAE6F0E0808188608083ED9A789430
:1005200008951F920F920FB60F9211248F939F93ED
:10053000AF93BF938091120390911303A091140382
:10054000B09115030196A11DB11D809312039093E4
:100550001303A0931403B0931503BF91AF919F9120
:100560008F910F900FBE0F901F9018951F920F92B2
:100570000FB60F9211248F939F93AF93BF938091E7
:100580000E0390910F03A0911003B09111030196F7
:10059000A11DB11D80930E0390930F03A093100330
:1005A000B0931103BF91AF919F918F910F900FBEA8
:1005B0000F901F90189586B1886088B988E893E1FC
:1005C00020E731E0F9013197F1F70197D9F786B1CA
:1005D000877F88B988E893E120E731E0F901319716
:1005E000F1F70197D9F70895E1E2F1E010829FEF6A
:1005F0009093250181E0809324011092290190932A
:10060000280110922B0190932A0110922D019093B2
:100610002C0189EA809320018BE080830895EAE72A
:10062000F0E0108210927B0080E280937C0080E8F2
:1006300080BF86E880830895982F883018F088E07E
:1006400080937B009770906290937C0080917A00F9
:10065000806480937A0080917A0084FFFCCF80913F
:10066000790090917A00906190937A0010927B00CB
:1006700008958093280160932A0108950F931F9392
:10068000182F062F842F0E941C03482F80931C03D1
:10069000812F602F50E023E030E00E948D011F91F8
:1006A0000F91089592B1907F8F70892B82B9089530
:1006B00082B1807F866082B9089582B1807F89602F
:1006C00082B9089582B1807F856082B9089582B130
:1006D000807F8A6082B9089582B1807F846082B908
:1006E000089582B1807F826082B9089582B1807F4F
:1006F000816082B9089582B1807F886082B908954F
:1007000082B1807F82B90895EF92FF920F931F9379
:10071000A0E0B0E0BC01CD010E94641128E431EEFC
:1007200042E850E40E94D60F0E94060D7B0100E0D3
:1007300010E01092120310921303109214031092FF
:10074000150310920E0310920F03109210031092D3
:1007500011038091120390911303A0911403B0919F
:10076000150320910E0330910F0340911003509117
:1007700011038E159F05A007B10728F42E153F051C
:100780004007510730F382B1807F82B91F910F91EA
:10079000FF90EF900895A0E0B0E0BC01CD010E9471
:1007A000641125EE30ED4AEA50E40E94D60F0E9413
:1007B000060D9B01AC0110921203109213031092CC
:1007C0001403109215038091120390911303A091CA
:1007D0001403B0911503281739074A075B0798F7E8
:1007E00082B1807F82B9089522B1207F266022B92C
:1007F0000E94CB03089522B1207F256022B90E9478
:100800008403089522B1207F2A6022B90E948403C4
:10081000089522B1207F246022B9880F991F0E9479
:100820008403089522B1207F226022B9880F991F86
:100830000E948403089522B1207F216022B9880F8D
:10084000991F0E948403089522B1207F286022B955
:10085000880F991F0E948403089583E00E941C035F
:1008600080930B0382E00E941C0380930C0381E0C1
:100870000E941C0380930D0381E061E043E00E942D
:100880003E0381E065E042E00E943E0381E069E0D2
:1008900041E00E943E0330910C0390910002391711
:1008A00060F081E080930A0382B1807F866082B924
:1008B0008AEF8093280180932A0120910B03291746
:1008C00098F480910D03891778F0391768F481E066
:1008D00080930A0382B1807F866082B986E9809323
:1008E000280188E780932A0180910D03891790F4ED
:1008F000291780F03917B0F581E080930A0382B19F
:10090000807F866082B988E78093280186E980939A
:100910002A010895391730F5291720F5891710F5A0
:1009200090910A03933040F09C3020F482B1807F94
:10093000856005C09F3070F482B1807F8A6082B983
:10094000809101028093280180932A019F5F9093F8
:100950000A03089582B1807F866082B910922801CF
:1009600010922A0108951F93182F83E00E941C0300
:1009700080930B0382E00E941C0380930C0381E0B0
:100980000E941C0380930D0381E061E043E00E941C
:100990003E0381E065E042E00E943E0381E069E0C1
:1009A00041E00E943E0330910C0390910002391700
:1009B00058F081E080930A0382B1807F866082B91B
:1009C0001093280110932A0120910B03291798F402
:1009D00080910D03891778F0391768F481E08093CE
:1009E0000A0382B1807F866082B9109328011E516C
:1009F00010932A01125E80910D03891790F4291734
:100A000080F03917B0F581E080930A0382B1807FCE
:100A1000866082B91E5110932801125E10932A013C
:100A200028C0391730F5291720F5891710F590914E
:100A30000A03953040F09F3020F482B1807F8560BA
:100A400005C0943170F482B1807F8A6082B9809150
:100A500001028093280180932A019F5F90930A03EB
:100A600008C082B1807F866082B9109228011092FE
:100A70002A011F9108951F93182F83E00E941C03E1
:100A800080930B0382E00E941C0380930C0381E09F
:100A90000E941C0380930D0381E061E043E00E940B
:100AA0003E0381E065E042E00E943E0381E069E0B0
:100AB00041E00E943E0330910C03909100023917EF
:100AC00058F081E080930A0382B1807F896082B907
:100AD0001093280110932A0120910B03291798F4F1
:100AE00080910D03891778F0391768F481E08093BD
:100AF0000A0382B1807F896082B91E511093280158
:100B0000125E10932A0180910D03891788F429172A
:100B100078F03917A0F581E080930A0382B1807FD5
:100B2000896082B9109328011E5110932A0127C0B1
:100B3000391728F5291718F5891708F590910A0330
:100B4000953040F09F3020F482B1807F856005C0F1
:100B5000943168F482B1807F8A6082B980E58093A5
:100B6000280180932A019F5F90930A0308C082B1F5
:100B7000807F866082B91092280110922A011F910D
:100B8000089583E00E941C0380930B0382E00E947F
:100B90001C0380930C0381E00E941C03282F809388
:100BA0000D0340910C039091000230910B036AEF0A
:100BB0005CED82B1807F866082B96093280150939A
:100BC0002A014917B0F33917A0F7291790F70895AC
:100BD00083E00E941C0380930B0382E00E941C03AD
:100BE00080930C0381E00E941C03282F80930D0347
:100BF00040910C039091000230910B036CED5AEF81
:100C000082B1807F866082B96093280150932A0167
:100C10004917B0F33917A0F7291790F70895259AC7
:100C20002D9A0895269A2E9A0895259A2D9A269AF5
:100C30002E9A0895E1E8F0E010828CEF8093850011
:100C400081E08093840093E0909389008FEF8093FC
:100C5000880090938B0080938A0090938D008093FE
:100C60008C0090938700809386008BEA80938000AD
:100C7000109282008CE080830895F8940E946202B2
:100C8000EAE7F0E0108210927B0080E280937C0023
:100C900080E880BF86E88083E1E2F1E010829FEF88
:100CA0009093250181E08093240110922901909373
:100CB000280110922B0190932A0110922D019093FC
:100CC0002C0189EA809320018BE08083F894EAE686
:100CD000F0E0808182608083EC9A7894F894EAE670
:100CE000F0E0808188608083ED9A7894259A2D9A2F
:100CF000269A2E9A0E941A068FE590E09093C500DE
:100D00008093C40086E08093C20088E18093C10094
:100D1000789408951092890090E0A0E0B0E0BC01C2
:100D2000CD010E9464112BE734E14EEE5FE30E9497
:100D3000D60F20E030E04CE052E40E94AF0E0E945B
:100D4000060D60938800089510928B0090E0A0E05B
:100D5000B0E0BC01CD010E9464112BE734E14EEEFE
:100D60005FE30E94D60F20E030E04CE052E40E94A6
:100D7000AF0E0E94060D60938A00089583E0809371
:100D800089008FEF80938800089583E080938B0023
:100D90008FEF80938A0008951F93CF93DF938AEF9C
:100DA0008093280180932A018AE590E00E94FB034A
:100DB00088EE93E020E731E0F9013197F1F70197F0
:100DC000D9F793E032E322E70CC08091C00085FFA1
:100DD000FCCF3093C6008091C00085FFFCCF2093EC
:100DE000C600915090F70E943D0610E0C0E7D1E0A8
:100DF000812F0E948A068CE291E0FE013197F1F783
:100E00000197D9F71F5F1A3599F780E197E220E73C
:100E100031E0F9013197F1F70197D9F710E0C0E718
:100E2000D1E0812F0E94A4068CE291E0FE0131976F
:100E3000F1F70197D9F71F5F1A3599F780ED97E021
:100E400020E731E0F9013197F1F70197D9F793E005
:100E5000909389008FEF8093880090938B0080930C
:100E60008A008AE590E00E94020488EE93E020E781
:100E700031E0F9013197F1F70197D9F786E98093CD
:100E8000280180932A01DF91CF911F910895DF926D
:100E9000EF92FF920F931F93CF93DF93082F87302A
:100EA00008F0DDC190E080FD03C0E02EE69404C0B0
:100EB000019695958795E82E10E042E8D42E32E30E
:100EC000F32EC0E7D1E04DC082B1807F866082B949
:100ED000D0922801F0922A0180E197E2FE01319739
:100EE000F1F70197D9F781E00E941C03909100026D
:100EF000981750F382E00E941C039091000298170B
:100F000018F383E00E941C03909100029817E0F20E
:100F100008C082B1807F866082B9D0922801F092A9
:100F20002A0181E00E941C0390910002891770F44D
:100F300082E00E941C0390910002891738F483E03C
:100F40000E941C0390910002891718F382B1807FE0
:100F500082B988EE93E0FE013197F1F70197D9F756
:100F60001F5F1E1508F4BFCF02C00E942D0481E050
:100F70000E941C03909100029817B8F382E00E942F
:100F80001C0390910002981780F383E00E941C03D9
:100F900090910002981748F382B1807F82B984EF64
:100FA00091E020E731E0F9013197F1F70197D9F7A6
:100FB00009C082B1807F866082B9F09228011093C7
:100FC0002A0103C022E8F22E12E381E00E941C03F2
:100FD00090910002891770F482E00E941C039091A6
:100FE0000002891738F483E00E941C0390910002EC
:100FF0008917F8F2017012E0101B04E6C0E7D1E097
:101000000E942D0483E00E941C0390910002981717
:10101000B8F782E00E941C0390910002981780F7B5
:1010200082B1807F866082B90093280100932A01F3
:1010300084EF91E0FE013197F1F70197D9F7115054
:10104000F9F682B1807F82B984EF91E020E731E048
:10105000F9013197F1F70197D9F70E94CC0602C048
:101060000E942D0481E00E941C03909100028917C8
:1010700088F482E00E941C0390910002981780F38C
:1010800009C082B1807F866082B9009328011093E5
:101090002A0102C002E812E383E00E941C0390913F
:1010A0000002981770F381E00E941C0390910002E7
:1010B000981738F382E00E941C0390910002891770
:1010C00000F382B1807F82B984EF91E020E731E0C4
:1010D000F9013197F1F70197D9F712E004E6C0E77B
:1010E000D1E00E942D0481E00E941C039091000237
:1010F0009817B8F783E00E941C039091000298179C
:1011000080F782B1807F866082B9009328010093C6
:101110002A0184EF91E0FE013197F1F70197D9F7A9
:101120001150F9F682B1807F82B984EF91E020E717
:1011300031E0F9013197F1F70197D9F703E00E1982
:1011400010E092E8E92E82E3F82EC0E7D1E050C02B
:1011500082B1807F866082B9E0922801F0922A01F4
:1011600081E00E941C0390910002981788F382E0AE
:101170000E941C0390910002981750F383E00E9494
:101180001C0390910002981718F382B1807F82B9F6
:1011900088EE93E0FE013197F1F70197D9F708C087
:1011A00082B1807F866082B9E0922801F0922A01A4
:1011B00081E00E941C0390910002891770F482E084
:1011C0000E941C0390910002891738F483E00E946A
:1011D0001C0390910002891718F382B1807F82B9B5
:1011E00088EE93E0FE013197F1F70197D9F71F5F81
:1011F000101708F4B5CF11E00E942D0481E00E9481
:101200001C03909100029817B8F782E00E941C031B
:1012100090910002981780F783E00E941C03909140
:101220000002981708F41150112331F786B1886035
:1012300088B988E893E120E731E0F9013197F1F7C7
:101240000197D9F786B1877F88B988E893E120E7CD
:1012500031E0F9013197F1F70197D9F711C2D82E92
:10126000D69410E0B2E3EB2EA2E8FA2EC0E7D1E06C
:1012700008C082B1807F866082B9E0922801F09236
:101280002A0181E00E941C0390910002981788F3C4
:1012900082E00E941C0390910002981750F383E0B3
:1012A0000E941C0390910002981718F382B1807F6E
:1012B00082B988EE93E0FE013197F1F70197D9F7F3
:1012C00008C082B1807F866082B9E0922801F092E6
:1012D0002A0181E00E941C0390910002891770F49A
:1012E00082E00E941C0390910002891738F483E089
:1012F0000E941C0390910002891718F382B1807F2D
:1013000082B988EE93E0FE013197F1F70197D9F7A2
:101310001F5F1D1508F4B5CF12E0F4E6FF2EC0E7FD
:10132000D1E00E942D0481E00E941C0390910002F4
:101330009817B8F783E00E941C0390910002981759
:1013400080F782B1807F866082B9F0922801F092A6
:101350002A0184EF91E0FE013197F1F70197D9F767
:101360001150F9F682B1807F82B984EF91E020E7D5
:1013700031E0F9013197F1F70197D9F709C082B14E
:10138000807F866082B91093280110932A0101C0E2
:1013900014E681E00E941C0390910002981778F3F4
:1013A00082E00E941C0390910002981740F383E0B2
:1013B0000E941C0390910002981708F382B1807F6D
:1013C00082B984EF91E020E731E0F9013197F1F73C
:1013D0000197D9F709C082B1807F866082B9F09207
:1013E000280110932A0103C0E2E3FE2E12E881E0F7
:1013F0000E941C0390910002891770F482E00E9401
:101400001C0390910002891738F483E00E941C03AA
:10141000909100028917F8F2017012E0101B04E6A7
:10142000C0E7D1E00E942D0481E00E941C0390914E
:1014300000029817B8F782E00E941C039091000206
:10144000981780F782B1807F866082B90093280167
:1014500000932A0184EF91E0FE013197F1F70197A3
:10146000D9F71150F9F682B1807F82B984EF91E00B
:1014700020E731E0F9013197F1F70197D9F70E94A0
:10148000CC0602C00E942D0483E00E941C039091B0
:101490000002891788F482E00E941C0390910002E8
:1014A000981780F309C082B1807F866082B900936B
:1014B000280110932A0102C002E312E883E00E948F
:1014C0001C0390910002981770F381E00E941C03A6
:1014D00090910002981738F382E00E941C039091CB
:1014E0000002891700F382B1807F82B984EF91E016
:1014F00020E731E0F9013197F1F70197D9F712E0D0
:1015000004E6C0E7D1E00E942D0481E00E941C03A4
:10151000909100029817B8F783E00E941C03909105
:101520000002981780F782B1807F866082B90093AD
:10153000280100932A0184EF91E0FE013197F1F731
:101540000197D9F71150F9F682B1807F82B984EF03
:1015500091E020E731E0F9013197F1F70197D9F7F0
:1015600003E00D1910E072E3E72E62E8F62EC0E703
:10157000D1E050C082B1807F866082B9E0922801BC
:10158000F0922A0181E00E941C03909100029817BA
:1015900088F382E00E941C0390910002981750F398
:1015A00083E00E941C0390910002981718F382B107
:1015B000807F82B988EE93E0FE013197F1F70197C1
:1015C000D9F708C082B1807F866082B9E092280195
:1015D000F0922A0181E00E941C0390910002891779
:1015E00070F482E00E941C0390910002891738F485
:1015F00083E00E941C0390910002891718F382B1C6
:10160000807F82B988EE93E0FE013197F1F7019770
:10161000D9F71F5F101708F4B5CF11E00E942D0411
:1016200081E00E941C03909100029817B8F782E0B5
:101630000E941C0390910002981780F783E00E949B
:101640001C0390910002981708F41150112331F7F0
:1016500086B1886088B988E893E120E731E0F90134
:101660003197F1F70197D9F786B1877F88B988E874
:1016700093E120E731E0F9013197F1F70197D9F7CC
:10168000DF91CF911F910F91FF90EF90DF90089520
:1016900090E0A0E0B0E0BC01CD010E9464112FEE0B
:1016A00039EC43E95FE30E941D149B01AC0160E04B
:1016B00070E080E89FE30E94D60F2AE939EF4EE2FE
:1016C00055E40E94DC0E20E030E040E251E40E944C
:1016D000DC0E0E941011882777FD8095982F0E94BC
:1016E000B2100E9410119B0183E06132780710F064
:1016F00020E233E0C9010895FF920F931F93CF9327
:10170000DF9388E290E00E94020488EE93E020E7F5
:1017100031E0F9013197F1F70197D9F781E00E94A3
:101720001C0390910002981788F082E00E941C032D
:1017300090910002981750F083E00E941C03909152
:101740000002981758F702C00E942D0480910A03E6
:101750008F30D0F314E682B1807F8A6082B9109313
:10176000280110932A0181E00E941C03909100023D
:10177000981738F413E001E074E6F72EC0E7D1E0E3
:101780000FC082E00E941C0390910002981790F312
:1017900083E00E941C03909100029817E0F6EACFC4
:1017A00086E90E94B304113029F4013011F40E943B
:1017B000CC0600E081E00E941C0390910002981783
:1017C00038F083E00E941C03909100029817B8F44F
:1017D00082E00E941C0390910002981780F482B16D
:1017E000807F866082B9F0922801F0922A0180E120
:1017F00097E2FE013197F1F70197D9F711501123C4
:1018000079F682B1807F866082B9109228011092A9
:101810002A0182B1807F8A6082B984E680932801A0
:1018200080932A0180E29EE420E731E0F9013197BC
:10183000F1F70197D9F716E982B1807F8A6082B902
:101840001093280110932A0181E00E941C039091BB
:101850000002981728F412E004E6C0E7D1E00FC0B8
:1018600082E00E941C03909100029817A0F383E08D
:101870000E941C03909100029817F0F6ECCF0E9492
:101880002D0481E00E941C0390910002981738F00B
:1018900083E00E941C03909100029817B8F482E044
:1018A0000E941C0390910002981780F482B1807FFF
:1018B000866082B90093280100932A0180E197E2B3
:1018C000FE013197F1F70197D9F711501123B9F6BD
:1018D00064E6F62EC0E7D1E006E982B1807F8A6037
:1018E00082B9F0922801F0922A0180E197E2FE018C
:1018F0003197F1F70197D9F782B1807F8A6082B979
:101900000093280100932A0181E00E941C0390911A
:101910000002981770F082E00E941C039091000270
:10192000981738F083E00E941C03909100029817EA
:1019300018F71F5F123089F686B1886088B988EE83
:1019400093E020E731E0F9013197F1F70197D9F7FA
:1019500086B1877F88B988EE93E020E731E0F9010E
:101960003197F1F70197D9F711E004E6C0E7D1E02C
:101970000E942D0481E00E941C03909100029817A0
:1019800038F083E00E941C03909100029817B8F48D
:1019900082E00E941C0390910002981780F482B1AB
:1019A000807F866082B90093280100932A0180E13C
:1019B00097E2FE013197F1F70197D9F71150112302
:1019C000B9F68BE00E941C030E94480B85369105F6
:1019D00040F08BE00E941C030E94480B0E942D04E3
:1019E000F8CF1092280110922A01DF91CF911F9118
:1019F0000F91FF9008950E943D060E94D6000E941C
:101A000029010E947C0B80E090E00895EF92FF9204
:101A10000F931F937B018C0120E030E040E05FE4F6
:101A20000E94821088238CF0C801B70120E030E0CA
:101A300040E05FE40E947E0E0E9410119B01AC0109
:101A4000205030404040504806C0C801B7010E94B5
:101A500010119B01AC01B901CA011F910F91FF90B8
:101A6000EF900895A0E0B0E0E8E3FDE00C94E61309
:101A7000DC012B01FA019C91923008F439C1EB0191
:101A80008881823008F433C1943069F4843009F0DD
:101A90002FC111969C9111978981981709F428C13B
:101AA000A2E0B2E025C1843009F421C18230A9F45A
:101AB000923009F01DC19A01AD0188E0EA01099058
:101AC000AE01E90109929E018150C1F7E2018981CD
:101AD00011969C918923818308C1923009F407C132
:101AE00012962D903C901397EB018A819B8114965E
:101AF000AD90BD90CD90DC901797EC80FD800E816D
:101B00001F819101281B390BB90137FF04C06627DB
:101B10007727621B730B603271050CF061C01216DF
:101B200013066CF537014801062E04C0969487947D
:101B3000779467940A94D2F721E030E040E050E0D7
:101B400004C0220F331F441F551F6A95D2F721503E
:101B50003040404050402E213F2140235123211549
:101B600031054105510521F021E030E040E050E031
:101B700079018A01E628F728082919293CC0232B76
:101B8000D1F1260E371E35014601062E04C096946B
:101B90008794779467940A94D2F721E030E040E08C
:101BA00050E004C0220F331F441F551F6A95D2F71F
:101BB00021503040404050402A213B214C215D21A2
:101BC000211531054105510521F021E030E040E0CB
:101BD00050E059016A01A628B728C828D9280BC0A7
:101BE000821593052CF01C01AA24BB24650103C0B7
:101BF000EE24FF24870111969C91D20111968C91BD
:101C0000981709F445C0992339F0A80197012A19BA
:101C10003B094C095D0906C0A60195012E193F0933
:101C2000400B510B57FD08C011823382228224835E
:101C30003583468357831DC081E0818333822282AE
:101C400088279927DC01821B930BA40BB50B848397
:101C50009583A683B7830DC0220F331F441F551FE2
:101C600024833583468357838281938101979383AD
:101C700082832481358146815781DA01C901019728
:101C8000A109B1098F5F9F4FAF4FBF4328F30BC02E
:101C9000918333822282EA0CFB1C0C1D1D1DE48201
:101CA000F5820683178383E0808324813581468112
:101CB000578157FF1AC0C901AA2797FDA095BA2FCF
:101CC00081709070A070B0705695479537952795A4
:101CD000822B932BA42BB52B84839583A683B78368
:101CE00082819381019693838283DF0101C0D201B7
:101CF000CD01CDB7DEB7E2E10C940214A0E2B0E072
:101D0000E4E8FEE00C94F21369837A838B839C836E
:101D10002D833E834F835887E9E0EE2EF12CEC0EA5
:101D2000FD1ECE010196B7010E9401138E010F5EC8
:101D30001F4FCE010596B8010E9401138A8991E0D8
:101D400089278A8BC701B801AE01475E5F4F0E94A9
:101D5000320D0E942C12A096E6E00C940E14A0E224
:101D6000B0E0E5EBFEE00C94F21369837A838B8399
:101D70009C832D833E834F835887F9E0EF2EF12C0F
:101D8000EC0EFD1ECE010196B7010E9401138E01DB
:101D90000F5E1F4FCE010596B8010E940113C701C7
:101DA000B801AE01475E5F4F0E94320D0E942C12B7
:101DB000A096E6E00C940E14A0E2B0E0E2EEFEE0A5
:101DC0000C94E61369837A838B839C832D833E83F3
:101DD0004F835887CE010196BE01675F7F4F0E94F7
:101DE0000113CE010596BE016F5E7F4F0E94011365
:101DF0009985923088F089898230C8F0943019F43E
:101E0000823051F404C0843029F4923081F482E0AD
:101E100092E0C6C0923049F420E09A858A899813EE
:101E200021E02A87CE010996BBC0823049F420E028
:101E30009A858A89981321E02A8BCE014196B0C0F9
:101E40002D843E844F8458886D887E888F88988C36
:101E5000EE24FF248701AA24BB24650140E050E062
:101E600060E070E0E0E0F0E0C10181709070892BEB
:101E7000E9F0E60CF71C081D191D9A01AB012A0DAB
:101E80003B1D4C1D5D1D80E090E0A0E0B0E0E6143D
:101E9000F7040805190520F481E090E0A0E0B0E027
:101EA000BA01A901480F591F6A1F7B1FAA0CBB1C4E
:101EB000CC1CDD1C97FE08C081E090E0A0E0B0E003
:101EC000A82AB92ACA2ADB2A3196E032F10549F05C
:101ED000660C771C881C991C569447943794279459
:101EE000C3CFFA85EA892B893C898B859C85280F8D
:101EF000391F2E5F3F4F17C0CA0181709070892B28
:101F000061F016950795F794E79480E090E0A0E0E3
:101F1000B0E8E82AF92A0A2B1B2B76956795579586
:101F200047952F5F3F4F77FDE7CF0CC0440F551FFC
:101F3000661F771F17FD4160EE0CFF1C001F111F6D
:101F400021503040403090E0590790E0690790E41C
:101F5000790760F32B8F3C8FDB01CA018F7790707C
:101F6000A070B07080349105A105B10561F447FD02
:101F70000AC0E114F1040105110529F0405C5F4F2E
:101F80006F4F7F4F40781A8EFE1711F081E08A8FD5
:101F90004D8F5E8F6F8F78A383E0898FCE01499636
:101FA0000E942C12A096E2E10C940214A8E1B0E089
:101FB000ECEDFFE00C94EE1369837A838B839C83B2
:101FC0002D833E834F835887B9E0EB2EF12CEC0E26
:101FD000FD1ECE010196B7010E9401138E010F5E16
:101FE0001F4FCE010596B8010E94011329852230AA
:101FF00008F47EC03989323010F4B8017CC08A857B
:102000009A8989278A87243011F0223031F42317E6
:1020100009F06EC062E072E06EC0343039F41D86A3
:102020001E861F86188A1C861B8604C0323021F447
:1020300084E08987B7015FC02B853C858B899C89AB
:10204000281B390B3C872B87ED84FE840F8518896C
:10205000AD88BE88CF88D88CEA14FB040C051D051A
:1020600040F4EE0CFF1C001F111F215030403C8734
:102070002B8720E030E040E050E080E090E0A0E0FE
:10208000B0E460E070E0EA14FB040C051D0540F0CC
:10209000282B392B4A2B5B2BEA18FB080C091D094E
:1020A000B695A79597958795EE0CFF1C001F111FFD
:1020B0006F5F7F4F6F31710531F7DA01C9018F779B
:1020C0009070A070B07080349105A105B10561F4E5
:1020D00027FD0AC0E114F1040105110529F0205C77
:1020E0003F4F4F4F5F4F20782D873E874F87588B4C
:1020F000BE01675F7F4FCB010E942C126896EAE019
:102100000C940A14A8E1B0E0E8E8F0E10C94F213B2
:1021100069837A838B839C832D833E834F83588787
:1021200089E0E82EF12CEC0EFD1ECE010196B701E0
:102130000E9401138E010F5E1F4FCE010596B8015C
:102140000E9401138985823040F08989823028F00D
:10215000C701B8010E94791301C08FEF6896E6E0CD
:102160000C940E14A8E0B0E0E8EBF0E10C94EF134F
:102170009B01AC0183E08983DA01C9018827B7FD9F
:1021800083959927AA27BB27B82E2115310541052C
:10219000510519F482E089833AC08823A9F02030E0
:1021A00080E0380780E0480780E8580729F460E0BD
:1021B00070E080E09FEC30C0EE24FF248701E21A3B
:1021C000F30A040B150B02C079018A018EE1C82EB7
:1021D000D12CDC82CB82ED82FE820F831887C8016E
:1021E000B7010E94DD1101971816190684F4082E14
:1021F00004C0EE0CFF1C001F111F0A94D2F7ED82E1
:10220000FE820F831887C81AD90ADC82CB82BA8271
:10221000CE0101960E942C122896E9E00C940B1432
:10222000ACE0B0E0E6E1F1E10C94F61369837A8367
:102230008B839C83CE010196BE016B5F7F4F0E9412
:1022400001138D81823061F1823050F1843021F4AC
:102250008E81882351F12EC02F81388537FD20C013
:102260006E812F3131051CF06623F9F023C08EE119
:1022700090E0821B930B29853A854B855C8504C0D1
:1022800056954795379527958A95D2F76623B1F0ED
:1022900050954095309521953F4F4F4F5F4F0EC061
:1022A00020E030E040E050E009C02FEF3FEF4FEF7B
:1022B0005FE704C020E030E040E050E8B901CA0127
:1022C0002C96E2E00C941214A8E0B0E0EAE6F1E10A
:1022D0000C94EE137B018C0161157105810591054C
:1022E00019F482E0898360C083E089838EE1C82E7F
:1022F000D12CDC82CB82ED82FE820F831887C8014D
:10230000B7010E94DD11FC013197F7FF3BC0222786
:1023100033272E1B3F0B57016801022E04C0D694B1
:10232000C794B794A7940A94D2F740E050E060E0D5
:1023300070E081E090E0A0E0B0E004C0880F991F59
:10234000AA1FBB1F2A95D2F70197A109B1098E21B7
:102350009F21A023B1230097A105B10521F041E001
:1023600050E060E070E04A295B296C297D294D83AB
:102370005E836F8378878EE190E08E1B9F0B9C833A
:102380008B8312C0309781F00E2E04C0EE0CFF1C20
:10239000001F111F0A94D2F7ED82FE820F83188767
:1023A000CE1ADF0ADC82CB821A82CE0101960E940D
:1023B0002C122896EAE00C940A14EF92FF920F93E5
:1023C0001F937B018C0180E0E81680E0F80681E035
:1023D000080780E0180788F48FEFE816F10401057C
:1023E000110531F028F088E090E0A0E0B0E017C0DF
:1023F00080E090E0A0E0B0E012C080E0E81680E06D
:10240000F80680E0080781E0180728F088E190E0EE
:10241000A0E0B0E004C080E190E0A0E0B0E020E205
:1024200030E040E050E0281B390B4A0B5B0B04C046
:1024300016950795F794E7948A95D2F7F701E65F2A
:10244000FD4F8081281B310941095109C9011F91A4
:102450000F91FF90EF900895DF92EF92FF920F930C
:102460001F93FC01E480F58006811781D180808173
:10247000823048F480E090E0A0E1B0E0E82AF92A58
:102480000A2B1B2BA5C0843009F49FC0823021F495
:10249000EE24FF24870105C0E114F10401051105B4
:1024A00019F4E0E0F0E096C0628173819FEF62383A
:1024B00079070CF05BC022E83FEF261B370B2A316F
:1024C00031052CF020E030E040E050E02AC0B801B7
:1024D000A701022E04C076956795579547950A94F3
:1024E000D2F781E090E0A0E0B0E004C0880F991F2F
:1024F000AA1FBB1F2A95D2F70197A109B1098E2106
:102500009F21A023B1230097A105B10521F081E00F
:1025100090E0A0E0B0E09A01AB01282B392B4A2BC8
:102520005B2BDA01C9018F779070A070B070803496
:102530009105A105B10539F427FF09C0205C3F4F83
:102540004F4F5F4F04C0215C3F4F4F4F5F4FE0E064
:10255000F0E02030A0E03A07A0E04A07A0E45A07E4
:1025600010F0E1E0F0E079018A0127C060387105E0
:1025700064F5FB01E158FF4FD801C7018F779070D8
:10258000A070B07080349105A105B10539F4E7FE63
:102590000DC080E490E0A0E0B0E004C08FE390E0E4
:1025A000A0E0B0E0E80EF91E0A1F1B1F17FF05C0D0
:1025B00016950795F794E794319687E01695079559
:1025C000F794E7948A95D1F705C0EE24FF2487019C
:1025D000EFEFF0E06E2F679566276795902F9F7756
:1025E000D794DD24D7948E2F8695492F462B582FCC
:1025F0005D29B701CA011F910F91FF90EF90DF9005
:102600000895FC01DB01408151812281622F6F77A7
:1026100070E0221F2227221F9381892F880F822B8F
:10262000282F30E0991F9927991F11969C93119795
:1026300021153105A9F5411551056105710511F403
:1026400082E037C082E89FEF13969C938E93129797
:102650009A01AB0167E0220F331F441F551F6A9593
:10266000D1F783E08C930DC0220F331F441F551FF9
:1026700012968D919C911397019713969C938E932C
:102680001297203080E0380780E0480780E4580740
:1026900058F314962D933D934D935C93179708959B
:1026A0002F3F310579F4411551056105710519F484
:1026B00084E08C93089564FF03C081E08C9312C082
:1026C0001C9210C02F57304013963C932E931297B4
:1026D00083E08C9387E0440F551F661F771F8A9510
:1026E000D1F7706414964D935D936D937C93179717
:1026F00008951F93DC01FB019C91923008F447C0C0
:102700008081823008F443C0943051F411961C91BA
:10271000843099F58181682F70E0611B71093FC099
:10272000843021F0923031F48230B9F181818823F4
:1027300089F12DC011961C9111978230F1F08181A1
:102740001817D9F412962D913C9113978281938199
:102750008217930794F028173907BCF014968D91CF
:102760009D910D90BC91A02D24813581468157818A
:10277000281739074A075B0718F4112341F00AC0EC
:1027800082179307A407B50740F4112319F061E0FD
:1027900070E005C06FEF7FEF02C060E070E0CB013A
:1027A0001F910895AA1BBB1B51E107C0AA1FBB1FA5
:1027B000A617B70710F0A61BB70B881F991F5A95CD
:1027C000A9F780959095BC01CD0108952F923F9275
:1027D0004F925F926F927F928F929F92AF92BF9231
:1027E000CF92DF92EF92FF920F931F93CF93DF93DD
:1027F000CDB7DEB7CA1BDB0B0FB6F894DEBF0FBE3A
:10280000CDBF19942A88398848885F846E847D8476
:102810008C849B84AA84B984C884DF80EE80FD8088
:102820000C811B81AA81B981CE0FD11D0FB6F894FE
:10283000DEBF0FBECDBFED010895FA01EE0FFF1F01
:1028400030962105310599F16115710561F48038E3
:10285000BFE39B0749F168949038810561F08038A7
:10286000BFEF9B0741F0992342F5FF3FE10531059A
:10287000210511F1E8940894E795D901AA2329F4D8
:10288000AB2FBE2FF85FD0F310C0FF5F70F4A6959A
:10289000E0F7F73950F019F0FF3A38F49F779F933B
:1028A0000CD00F9007FC905808953EF049C060E0AE
:1028B00070E080E89FE308954FE79F775F934F9321
:1028C0003F932F93D0D02F913F914F915F9174DA26
:1028D00005C019F40EF02EC07DC032C061D0C8F31F
:1028E0009638C0F707F80F92E8942BE33AEA48EBE2
:1028F0005FE738D10F920F920F924DB75EB70F92EC
:10290000F2D0E4EEF0E01FD04F915F91EF91FF9194
:10291000E595EE1FFF1F49F0FE57E0684427EE0FD4
:10292000441FFA95E1F74195550B64D00F9007FECF
:1029300058C0089597F99F6780E870E060E00895B7
:102940009FEF80EC0895DF93CF931F930F93FF9237
:10295000EF92DF927B018C01689405C0DA2EEF01C3
:10296000FFD0FE01E894A5912591359145915591AF
:10297000AEF3EF0159D1FE019701A801DA9479F77E
:10298000DF90EF90FF900F911F91CF91DF9108950D
:1029900057FD9058440F551F59F05F3F71F0479510
:1029A000880F97FB991F61F09F3F79F087950895F5
:1029B000121613061406551FF2CF4695F1DF08C014
:1029C000161617061806991FF1CF86957105610531
:1029D00008940895E894BB2766277727CB0197F9D9
:1029E00008959B01AC0160E070E080E89FE3DECADF
:1029F000A1CF6DC1D5DFE8F39923D9F3940F511D11
:102A0000BBF39150504094F059F0882332F0660F98
:102A1000771F881F91505040C1F79E3F510544F7E2
:102A2000880F911D9695879597F908955F3FACF0B3
:102A3000983E9CF0BB27869577956795B79508F4E7
:102A4000B1609395C1F7BB0F58F711F460FFE8CF61
:102A50006F5F7F4F8F4F9F4FE3CFBDCF0EF037C1DA
:102A60006FCF689467CF9CDFC8F39923D1F3C6F387
:102A7000DF93CF931F930F93FF92C92FDD278823F6
:102A80002AF02197660F771F881FDAF720E030E0E1
:102A900040E85FEB9FE3883920F0803E30F02196DC
:102AA0008F775DD9ECE0F1E003C059D9E9E3F1E0BB
:102AB0004ADF8B01BE01EC01FB2E6F577109759542
:102AC000771F880B990B4EDB28E132E741E35FE388
:102AD00047D0AF2D9801AE01FF900F911F91CF917C
:102AE000DF91A2D010C1FA01DC01AA0FBB1F9B012C
:102AF000AC01BF5728F422273327442750781FC042
:102B0000B75188F4AB2F0024469537952795011CC3
:102B1000A395D2F3002069F0220F331F441FB39511
:102B2000DAF30DD0EBC861307105A0E88A07B94629
:102B300030F49B01AC016627772788279078309680
:102B400021F020833183428353830895CED028F02F
:102B5000D3D018F0952309F0EDCEF2CE11243BCF5F
:102B600017DFA0F3959FD1F3950F50E0551F629F9B
:102B7000F001729FBB27F00DB11D639FAA27F00DD6
:102B8000B11DAA1F649F6627B00DA11D661F829FFD
:102B90002227B00DA11D621F739FB00DA11D621FE2
:102BA000839FA00D611D221F749F3327A00D611DFF
:102BB000231F849F600D211D822F762F6A2F1124E1
:102BC0009F5750408AF0E1F088234AF0EE0FFF1F34
:102BD000BB1F661F771F881F91505040A9F79E3F6B
:102BE000510570F0A7CEF7CE5F3FECF3983EDCF3D3
:102BF000869577956795B795F795E7959F5FC1F7A8
:102C0000FE2B880F911D9695879597F908956DD0A5
:102C100030F072D020F031F49F3F11F41EF490CECA
:102C20000EF4E095E7FB86CEE92FB2DE80F3BA170B
:102C3000620773078407950718F071F49EF5CACEF2
:102C40000EF4E0950B2EBA2FA02D0B01B9019001C7
:102C50000C01CA01A0011124FF27591B99F0593F0B
:102C600050F4503E68F11A16F040A22F232F342F53
:102C70004427585FF3CF469537952795A795F040A1
:102C80005395C9F77EF41F16BA0B620B730B840BB6
:102C9000BAF09150A1F0FF0FBB1F661F771F881F6E
:102CA000C2F70EC0BA0F621F731F841F48F48795C6
:102CB00077956795B795F7959E3F08F0B3CF9395B5
:102CC000880F08F09927EE0F9795879508959F3FF5
:102CD00031F0915020F4879577956795B795880FD7
:102CE000911D9695879597F9089500240A941616D4
:102CF000170618060906089500240A9412161306EA
:102D0000140605060895092E0394000C11F4882377
:102D100052F0BB0F40F4BF2B11F460FF04C06F5F93
:0C2D20007F4F8F4F9F4F0895F894FFCF16
:102D2C000C5500000000000000000001020203032B
:102D3C000303040404040404040405050505050543
:102D4C000505050505050505050506060606060621
:102D5C000606060606060606060606060606060607
:102D6C0006060606060606060606070707070707F1
:102D7C0007070707070707070707070707070707D7
:102D8C0007070707070707070707070707070707C7
:102D9C0007070707070707070707070707070707B7
:102DAC0007070707070707070707080808080808A1
:102DBC000808080808080808080808080808080887
:102DCC000808080808080808080808080808080877
:102DDC000808080808080808080808080808080867
:102DEC000808080808080808080808080808080857
:102DFC000808080808080808080808080808080847
:102E0C000808080808080808080808080808080836
:102E1C000808080808080808080808080808080826
:0A2E2C00080808080808080808084C
:00000001FF
