:100000000C9472000C9493000C9493000C94930045
:100010000C9493000C9475020C9450020C94930071
:100020000C9493000C9493000C9493000C94930004
:100030000C9493000C9493000C9493000C949300F4
:100040000C9493000C9493000C9493000C949300E4
:100050000C9493000C9493000C9493000C949300D4
:100060000C9493000C9493000C9493000C949300C4
:100070000C9493000C9493000C9493000C949300B4
:100080000C9493000C9493000C9493000C949300A4
:100090000C9493000C9493000C9493000C94930094
:1000A0000C9493000C9493000C9493000C94930084
:1000B0000C9493000C9493000C9493000C94930074
:1000C0000C9493000C9493000C9493000C94930064
:1000D0000C9493000C9493000C9493000C94930054
:1000E0000C94930011241FBECFEFD1E2DEBFCDBF31
:1000F00000E00CBF13E0A0E0B2E0E2EAF2E200E0D0
:100100000BBF02C007900D92AA30B107D9F713E0D8
:10011000AAE0B3E001C01D92A532B107E1F70E9449
:10012000850B0C944F110C94000086E69EE0FC01B8
:100130003197F1F74098419840E348B9429A20E05E
:1001400038E4F9013197F1F74298FC013197F1F762
:100150004098419848B9429AF9013197F1F742988D
:10016000FC013197F1F74098419848B9429AF9015A
:100170003197F1F742980197F1F74098419880E262
:1001800088B9429AC9010197F1F74298089598B148
:100190009F7098B928B1982F907F922B98B940986A
:1001A0004198429A20E038E4F9013197F1F74298FA
:1001B00098B19F7098B998B18295807F982B98B923
:1001C00040984198429AC9010197F1F742980895E1
:1001D0000E94950086E69EE00197F1F788E20E9472
:1001E000C70081E00E94C70086E00E94C7008EE041
:1001F0000E94C70080E80E94C700089598B19F70D0
:1002000098B928B1982F907F922B98B9409A41982D
:10021000429A20E038E4F9013197F1F7429898B119
:100220009F7098B998B18295807F982B98B9409A21
:100230004198429AC9010197F1F74298089580E8E0
:100240000E94C7000895CF93DF93EC0103C00E9482
:10025000FE00219688818823D1F7DF91CF91089500
:10026000823069F0833018F48130A9F405C08330FE
:1002700049F0843081F40BC0862F815805C0862F49
:10028000815402C0862F8D560E94C7000895862F84
:100290008D520E94C70008950F931F93CF93DF9351
:1002A0008A01E901882311F0662319F40E941F01D5
:1002B00002C00E943001C530D10571F4C80160E16F
:1002C00077E20E940411CB01C096909319038093AA
:1002D00018030E94FE0005C0C430D10511F080E073
:1002E00016C0C80168EE73E00E940411CB01609350
:1002F0001A0390931B036AE070E00E940411C096F9
:1003000090932403809323030E94FE0081E0C33076
:10031000D10521F0813011F080E016C0C80164E6FB
:1003200070E00E940411CB0160931A0390931B03A9
:100330006AE070E00E940411C096909320038093BD
:100340001F030E94FE0081E0C230D10521F0813000
:1003500011F080E016C0C8016AE070E00E9404114C
:10036000CB0160931A0390931B036AE070E00E9434
:100370000411C09690931E0380931D030E94FE00FB
:1003800081E0C130D10511F0813061F4C8016AE02B
:1003900070E00E940411C096909322038093210381
:1003A0000E94FE0026971CF085E40E94FE00DF916B
:1003B000CF911F910F9108958FE590E09093C50024
:1003C0008093C40086E08093C20088E18093C100DE
:1003D0000895982F8091C00085FFFCCF9093C600B0
:1003E000089587B1876F87B988B1807888B90895F3
:1003F0003B9A4398089586B1886088B9089586B17C
:10040000877F88B9089510BA11BA10920701109227
:100410000801089581B18F6081B982B1807F82B96E
:10042000EAE0F1E0808188618083EBE0F1E08081A7
:100430008861808308956C98749A08956D98759A70
:10044000089510BA11BA109207011092080181B1F3
:100450008F6081B982B1807F82B9EAE0F1E080816A
:1004600088618083EBE0F1E08081886180836C9813
:10047000749A6D98759A3B9A43980895F894EAE6B1
:10048000F0E0808182608083EC9A78940895F894FB
:10049000EAE6F0E0808188608083ED9A78940895A0
:1004A0001F920F920FB60F9211248F939F93AF93C9
:1004B000BF938091120390911303A0911403B09104
:1004C00015030196A11DB11D809312039093130390
:1004D000A0931403B0931503BF91AF919F918F9197
:1004E0000F900FBE0F901F9018951F920F920FB68E
:1004F0000F9211248F939F93AF93BF9380910E031C
:1005000090910F03A0911003B09111030196A11DCA
:10051000B11D80930E0390930F03A0931003B0932B
:100520001103BF91AF919F918F910F900FBE0F90CC
:100530001F90189586B1886088B988E893E120E714
:1005400031E0F9013197F1F70197D9F786B1877F4B
:1005500088B988E893E120E731E0F9013197F1F7B4
:100560000197D9F70895E1E2F1E010829FEF9093AF
:10057000250181E0809324011092290190932801A4
:1005800010922B0190932A0110922D0190932C012F
:1005900089EA809320018BE080830895EAE7F0E008
:1005A000108210927B0080E280937C0080E880BF04
:1005B00086E880830895982F883018F088E080932B
:1005C0007B009770906290937C0080917A008064A9
:1005D00080937A0080917A0084FFFCCF809179002B
:1005E00090917A00906190937A0010927B00089528
:1005F0008093280160932A0108950F931F93182F69
:10060000062F842F0E94DB02482F80931C03812F2A
:10061000602F50E023E030E00E944C011F910F91C9
:10062000089592B1907F8F70892B82B9089582B11D
:10063000807F866082B9089582B1807F856082B9AB
:10064000089582B1807F8A6082B9089582B1807FE7
:10065000846082B9089582B1807F826082B90895F2
:1006600082B1807F816082B9089582B1807F886085
:1006700082B9089582B1807F82B90895EF92FF9286
:100680000F931F93A0E0B0E0BC01CD010E94960E35
:1006900028E431EE42E850E40E94660D0E94900B7F
:1006A0007B0100E010E010921203109213031092ED
:1006B00014031092150310920E0310920F03109260
:1006C0001003109211038091120390911303A091D3
:1006D0001403B091150320910E0330910F03409144
:1006E0001003509111038E159F05A007B10728F440
:1006F0002E153F054007510730F382B1807F82B944
:100700001F910F91FF90EF900895A0E0B0E0BC0121
:10071000CD010E94960E25EE30ED4AEA50E40E948B
:10072000660D0E94900B9B01AC0110921203109277
:1007300013031092140310921503809112039091E9
:100740001303A0911403B0911503281739074A0722
:100750005B0798F782B1807F82B9089522B1207F2C
:10076000266022B90E948503089522B1207F25606A
:1007700022B90E943E03089522B1207F2A6022B947
:100780000E943E03089522B1207F246022B9880F81
:10079000991F0E943E03089522B1207F226022B952
:1007A000880F991F0E943E03089522B1207F216087
:1007B00022B9880F991F0E943E03089522B1207F1D
:1007C000286022B9880F991F0E943E03089583E094
:1007D0000E94DB0280930B0382E00E94DB02809385
:1007E0000C0381E00E94DB0280930D0381E061E055
:1007F00043E00E94FD0281E065E042E00E94FD02CC
:1008000081E069E041E00E94FD0230910C0390918B
:100810000002391760F081E080930A0382B1807F83
:10082000866082B98AEF8093280180932A01209103
:100830000B03291798F480910D03891778F0391765
:1008400068F481E080930A0382B1807F866082B978
:1008500086E98093280188E780932A0180910D031F
:10086000891790F4291780F03917A8F581E0809353
:100870000A0382B1807F866082B988E7809328016D
:1008800086E980932A010895391728F5291718F564
:10089000891708F590910A03933040F09C3020F4BA
:1008A00082B1807F856005C09F3068F482B1807F0F
:1008B0008A6082B984E68093280180932A019F5F31
:1008C00090930A03089582B1807F866082B9109266
:1008D000280110922A0108951F93182F83E00E9487
:1008E000DB0280930B0382E00E94DB0280930C0307
:1008F00081E00E94DB0280930D0381E061E043E030
:100900000E94FD0281E065E042E00E94FD0281E07C
:1009100069E041E00E94FD0230910C0390910002D9
:10092000391758F081E080930A0382B1807F866096
:1009300082B91093280110932A0120910B032917E3
:1009400098F480910D03891778F0391768F481E0E5
:1009500080930A0382B1807F866082B91093280158
:100960001E5110932A01125E80910D03891790F495
:10097000291780F03917A8F581E080930A0382B126
:10098000807F866082B91E5110932801125E1093F9
:100990002A0127C0391728F5291718F5891708F5EE
:1009A00090910A03933040F09C3020F482B1807F14
:1009B000856005C09F3068F482B1807F8A6082B90B
:1009C00080E58093280180932A019F5F90930A031A
:1009D00008C082B1807F866082B91092280110928F
:1009E0002A011F910895259A2D9A0895269A2E9AE4
:1009F0000895259A2D9A269A2E9A0895E1E8F0E016
:100A000010828CEF8093850081E08093840093E0D6
:100A1000909389008FEF8093880090938B00809350
:100A20008A0090938D0080938C0090938700809330
:100A300086008BEA80938000109282008CE0808395
:100A40000895F8940E942102EAE7F0E010821092E3
:100A50007B0080E280937C0080E880BF86E8808312
:100A6000E1E2F1E010829FEF9093250181E0809315
:100A70002401109229019093280110922B01909348
:100A80002A0110922D0190932C0189EA8093200174
:100A90008BE08083F894EAE6F0E0808182608083D6
:100AA000EC9A7894F894EAE6F0E08081886080839C
:100AB000ED9A7894259A2D9A269A2E9A0E94FE04F1
:100AC0008FE590E09093C5008093C40086E080930A
:100AD000C20088E18093C100789408951092890043
:100AE00090E0A0E0B0E0BC01CD010E94960E2BE7A3
:100AF00034E14EEE5FE30E94660D20E030E04CE012
:100B000052E40E94390D0E94900B60938800089572
:100B100010928B0090E0A0E0B0E0BC01CD010E94FB
:100B2000960E2BE734E14EEE5FE30E94660D20E067
:100B300030E04CE052E40E94390D0E94900B60932B
:100B40008A00089583E0809389008FEF8093880066
:100B5000089583E080938B008FEF80938A0008953F
:100B60001F93CF93DF938AEF8093280180932A010C
:100B70008AE590E00E94B50388EE93E020E731E03B
:100B8000F9013197F1F70197D9F70E94210510E09B
:100B9000C0E7D1E0812F0E946E058CE291E0FE015A
:100BA0003197F1F70197D9F71F5F1A3599F780E16F
:100BB00097E220E731E0F9013197F1F70197D9F792
:100BC00010E0C0E7D1E0812F0E9488058CE291E01F
:100BD000FE013197F1F70197D9F71F5F1A3599F7A1
:100BE00080ED97E020E731E0F9013197F1F70197C7
:100BF000D9F793E0909389008FEF809388009093CA
:100C00008B0080938A008AE590E00E94BC0388EE06
:100C100093E020E731E0F9013197F1F70197D9F737
:100C200086E98093280180932A01DF91CF911F915B
:100C30000895DF92EF92FF920F931F93CF93DF936C
:100C4000082F873008F0DDC190E080FD03C0E02E62
:100C5000E69404C0019695958795E82E10E042E849
:100C6000D42E32E3F32EC0E7D1E04DC082B1807FB5
:100C7000866082B9D0922801F0922A0180E197E241
:100C8000FE013197F1F70197D9F781E00E94DB026D
:100C900090910002981750F382E00E94DB0290913D
:100CA0000002981718F383E00E94DB029091000283
:100CB0009817E0F208C082B1807F866082B9D09236
:100CC0002801F0922A0181E00E94DB02909100024B
:100CD000891770F482E00E94DB029091000289176C
:100CE00038F483E00E94DB0290910002891718F328
:100CF00082B1807F82B988EE93E0FE013197F1F7EF
:100D00000197D9F71F5F1E1508F4BFCF02C00E94DC
:100D1000E70381E00E94DB02909100029817B8F38C
:100D200082E00E94DB0290910002981780F383E03A
:100D30000E94DB0290910002981748F382B1807FF5
:100D400082B984EF91E020E731E0F9013197F1F7C2
:100D50000197D9F709C082B1807F866082B9F0928D
:100D6000280110932A0103C022E8F22E12E381E049
:100D70000E94DB0290910002891770F482E00E94C9
:100D8000DB0290910002891738F483E00E94DB02B5
:100D9000909100028917F8F2017012E0101B04E62E
:100DA000C0E7D1E00E94E70383E00E94DB0290915C
:100DB00000029817B8F782E00E94DB0290910002CF
:100DC000981780F782B1807F866082B900932801EE
:100DD00000932A0184EF91E0FE013197F1F701972A
:100DE000D9F71150F9F682B1807F82B984EF91E092
:100DF00020E731E0F9013197F1F70197D9F70E9427
:100E0000B00502C00E94E70381E00E94DB029091DE
:100E10000002891788F482E00E94DB0290910002B0
:100E2000981780F309C082B1807F866082B90093F1
:100E3000280110932A0102C002E812E383E00E9415
:100E4000DB0290910002981770F381E00E94DB02B0
:100E500090910002981738F382E00E94DB02909193
:100E60000002891700F382B1807F82B984EF91E09C
:100E700020E731E0F9013197F1F70197D9F712E056
:100E800004E6C0E7D1E00E94E70381E00E94DB02B4
:100E9000909100029817B8F783E00E94DB029091CE
:100EA0000002981780F782B1807F866082B9009334
:100EB000280100932A0184EF91E0FE013197F1F7B8
:100EC0000197D9F71150F9F682B1807F82B984EF8A
:100ED00091E020E731E0F9013197F1F70197D9F777
:100EE00003E00E1910E092E8E92E82E3F82EC0E745
:100EF000D1E050C082B1807F866082B9E092280143
:100F0000F0922A0181E00E94DB0290910002981782
:100F100088F382E00E94DB0290910002981750F360
:100F200083E00E94DB0290910002981718F382B1CF
:100F3000807F82B988EE93E0FE013197F1F7019747
:100F4000D9F708C082B1807F866082B9E09228011B
:100F5000F0922A0181E00E94DB0290910002891741
:100F600070F482E00E94DB0290910002891738F44D
:100F700083E00E94DB0290910002891718F382B18E
:100F8000807F82B988EE93E0FE013197F1F70197F7
:100F9000D9F71F5F101708F4B5CF11E00E94E703DF
:100FA00081E00E94DB02909100029817B8F782E07E
:100FB0000E94DB0290910002981780F783E00E9464
:100FC000DB0290910002981708F41150112331F7B9
:100FD00086B1886088B988E893E120E731E0F901BB
:100FE0003197F1F70197D9F786B1877F88B988E8FB
:100FF00093E120E731E0F9013197F1F70197D9F753
:1010000011C2D82ED69410E0B2E3EB2EA2E8FA2E4D
:10101000C0E7D1E008C082B1807F866082B9E092EB
:101020002801F0922A0181E00E94DB0290910002E7
:10103000981788F382E00E94DB02909100029817D3
:1010400050F383E00E94DB0290910002981718F39E
:1010500082B1807F82B988EE93E0FE013197F1F78B
:101060000197D9F708C082B1807F866082B9E0928B
:101070002801F0922A0181E00E94DB029091000297
:10108000891770F482E00E94DB02909100028917B8
:1010900038F483E00E94DB0290910002891718F374
:1010A00082B1807F82B988EE93E0FE013197F1F73B
:1010B0000197D9F71F5F1D1508F4B5CF12E0F4E6CC
:1010C000FF2EC0E7D1E00E94E70381E00E94DB022F
:1010D000909100029817B8F783E00E94DB0290918C
:1010E0000002981780F782B1807F866082B9F09203
:1010F0002801F0922A0184EF91E0FE013197F1F787
:101100000197D9F71150F9F682B1807F82B984EF47
:1011100091E020E731E0F9013197F1F70197D9F734
:1011200009C082B1807F866082B910932801109334
:101130002A0101C014E681E00E94DB0290910002C6
:10114000981778F382E00E94DB02909100029817D2
:1011500040F383E00E94DB0290910002981708F3AD
:1011600082B1807F82B984EF91E020E731E0F9011C
:101170003197F1F70197D9F709C082B1807F866076
:1011800082B9F092280110932A0103C0E2E3FE2EF7
:1011900012E881E00E94DB0290910002891770F44E
:1011A00082E00E94DB0290910002891738F483E00C
:1011B0000E94DB02909100028917F8F2017012E0A0
:1011C000101B04E6C0E7D1E00E94E70381E00E9423
:1011D000DB02909100029817B8F782E00E94DB02D0
:1011E00090910002981780F782B1807F866082B963
:1011F0000093280100932A0184EF91E0FE013197CA
:10120000F1F70197D9F71150F9F682B1807F82B9D1
:1012100084EF91E020E731E0F9013197F1F7019790
:10122000D9F70E94B00502C00E94E70383E00E9444
:10123000DB0290910002891788F482E00E94DB02B1
:1012400090910002981780F309C082B1807F866078
:1012500082B90093280110932A0102C002E312E828
:1012600083E00E94DB0290910002981770F381E006
:101270000E94DB0290910002981738F382E00E94EE
:10128000DB0290910002891700F382B1807F82B95E
:1012900084EF91E020E731E0F9013197F1F7019710
:1012A000D9F712E004E6C0E7D1E00E94E70381E04D
:1012B0000E94DB02909100029817B8F783E00E9429
:1012C000DB0290910002981780F782B1807F8660E0
:1012D00082B90093280100932A0184EF91E0FE0176
:1012E0003197F1F70197D9F71150F9F682B1807F64
:1012F00082B984EF91E020E731E0F9013197F1F70D
:101300000197D9F703E00D1910E072E3E72E62E8C8
:10131000F62EC0E7D1E050C082B1807F866082B9EE
:10132000E0922801F0922A0181E00E94DB02909174
:101330000002981788F382E00E94DB02909100027D
:10134000981750F383E00E94DB02909100029817F7
:1013500018F382B1807F82B988EE93E0FE01319765
:10136000F1F70197D9F708C082B1807F866082B912
:10137000E0922801F0922A0181E00E94DB02909124
:101380000002891770F482E00E94DB029091000253
:10139000891738F483E00E94DB02909100028917DC
:1013A00018F382B1807F82B988EE93E0FE01319715
:1013B000F1F70197D9F71F5F101708F4B5CF11E0C7
:1013C0000E94E70381E00E94DB02909100029817DF
:1013D000B8F782E00E94DB0290910002981780F734
:1013E00083E00E94DB0290910002981708F41150EC
:1013F000112331F786B1886088B988E893E120E746
:1014000031E0F9013197F1F70197D9F786B1877F7C
:1014100088B988E893E120E731E0F9013197F1F7E5
:101420000197D9F7DF91CF911F910F91FF90EF9026
:10143000DF900895FF920F931F93CF93DF938DE278
:1014400090E00E94BC0381E00E94DB0290910002C8
:10145000981788F082E00E94DB02909100029817B2
:1014600050F083E00E94DB0290910002981758F739
:1014700002C00E94E70380910A038F30D0F314E684
:1014800082B1807F8A6082B91093280110932A016B
:1014900081E00E94DB0290910002981738F413E07B
:1014A00001E074E6F72EC0E7D1E00FC082E00E94B1
:1014B000DB0290910002981790F383E00E94DB0218
:1014C000909100029817E0F6EACF86E90E946C043A
:1014D000113029F4013011F40E94B00500E081E0E0
:1014E0000E94DB0290910002981738F083E00E947E
:1014F000DB02909100029817B8F482E00E94DB02B0
:1015000090910002981780F482B1807F866082B942
:10151000F0922801F0922A0180E197E2FE013197D2
:10152000F1F70197D9F71150112379F682B1807F35
:10153000866082B91092280110922A0182B1807FC0
:101540008A6082B984E68093280180932A0180E230
:101550009EE420E731E0F9013197F1F70197D9F7DF
:1015600016E982B1807F8A6082B9109328011093B6
:101570002A0181E00E94DB0290910002981728F472
:1015800012E004E6C0E7D1E00FC082E00E94DB0277
:10159000909100029817A0F383E00E94DB029091E3
:1015A00000029817F0F6ECCF0E94E70381E00E945A
:1015B000DB0290910002981738F083E00E94DB0272
:1015C000909100029817B8F482E00E94DB0290919B
:1015D0000002981780F482B1807F866082B9009300
:1015E000280100932A0180E197E2FE013197F1F78B
:1015F0000197D9F711501123B9F664E6F62EC0E72A
:10160000D1E006E982B1807F8A6082B9F092280138
:10161000F0922A0180E197E2FE013197F1F70197FC
:10162000D9F782B1807F8A6082B900932801009344
:101630002A0181E00E94DB0290910002981770F06D
:1016400082E00E94DB0290910002981738F083E05C
:101650000E94DB0290910002981718F71F5F12306A
:1016600089F686B1886088B988EE93E020E731E09A
:10167000F9013197F1F70197D9F786B1877F88B9DA
:1016800088EE93E020E731E0F9013197F1F7019717
:10169000D9F711E004E6C0E7D1E00E94E70381E05A
:1016A0000E94DB0290910002981738F083E00E94BC
:1016B000DB02909100029817B8F482E00E94DB02EE
:1016C00090910002981780F482B1807F866082B981
:1016D0000093280100932A0180E197E2FE013197EF
:1016E000F1F70197D9F711501123B9F61AE00E94CA
:1016F000E7031150E1F71092280110922A01DF91BF
:10170000CF911F910F91FF9008950E9421050E9493
:1017100095000E94E8000E941A0A80E090E0089577
:10172000EF92FF920F931F937B018C0120E030E03A
:1017300040E05FE40E94120E88238CF0C801B701DC
:1017400020E030E040E05FE40E94080D0E94420E7D
:101750009B01AC01205030404040504806C0C801B9
:10176000B7010E94420E9B01AC01B901CA011F9151
:101770000F91FF90EF900895A0E0B0E0E2ECFBE065
:101780000C941811DC012B01FA019C91923008F4A1
:1017900039C1EB018881823008F433C1943069F497
:1017A000843009F02FC111969C9111978981981767
:1017B00009F428C1A1E0B2E025C1843009F421C1B7
:1017C0008230A9F4923009F01DC19A01AD0188E080
:1017D000EA010990AE01E90109929E018150C1F729
:1017E000E201898111969C918923818308C19230FD
:1017F00009F407C112962D903C901397EB018A8152
:101800009B811496AD90BD90CD90DC901797EC80A5
:10181000FD800E811F819101281B390BB90137FF13
:1018200004C066277727621B730B603271050CF0CA
:1018300061C0121613066CF537014801062E04C06C
:1018400096948794779467940A94D2F721E030E0D5
:1018500040E050E004C0220F331F441F551F6A951B
:10186000D2F721503040404050402E213F214023AC
:101870005123211531054105510521F021E030E0CA
:1018800040E050E079018A01E628F7280829192963
:101890003CC0232BD1F1260E371E35014601062E02
:1018A00004C096948794779467940A94D2F721E0C1
:1018B00030E040E050E004C0220F331F441F551FAA
:1018C0006A95D2F721503040404050402A213B21B8
:1018D0004C215D21211531054105510521F021E003
:1018E00030E040E050E059016A01A628B728C82836
:1018F000D9280BC0821593052CF01C01AA24BB2407
:10190000650103C0EE24FF24870111969C91D2014A
:1019100011968C91981709F445C0992339F0A801C4
:1019200097012A193B094C095D0906C0A6019501DA
:101930002E193F09400B510B57FD08C0118233820D
:10194000228224833583468357831DC081E08183AF
:101950003382228288279927DC01821B930BA40BF8
:10196000B50B84839583A683B7830DC0220F331FE5
:10197000441F551F24833583468357838281938177
:101980000197938382832481358146815781DA01CF
:10199000C9010197A109B1098F5F9F4FAF4FBF43A5
:1019A00028F30BC0918333822282EA0CFB1C0C1DAE
:1019B0001D1DE482F5820683178383E080832481E2
:1019C00035814681578157FF1AC0C901AA2797FD63
:1019D000A095BA2F81709070A070B0705695479501
:1019E00037952795822B932BA42BB52B8483958336
:1019F000A683B78382819381019693838283DF01DB
:101A000001C0D201CD01CDB7DEB7E2E10C943411B3
:101A1000A0E2B0E0EEE0FDE00C94241169837A834B
:101A20008B839C832D833E834F835887E9E0EE2E82
:101A3000F12CEC0EFD1ECE010196B7010E94331071
:101A40008E010F5E1F4FCE010596B8010E94331024
:101A50008A8991E089278A8BC701B801AE01475E68
:101A60005F4F0E94BC0B0E945E0FA096E6E00C94B4
:101A70004011A0E2B0E0EFE3FDE00C942411698393
:101A80007A838B839C832D833E834F835887F9E031
:101A9000EF2EF12CEC0EFD1ECE010196B7010E9437
:101AA00033108E010F5E1F4FCE010596B8010E94C4
:101AB0003310C701B801AE01475E5F4F0E94BC0BF7
:101AC0000E945E0FA096E6E00C944011A8E1B0E001
:101AD000ECE6FDE00C94201169837A838B839C8370
:101AE0002D833E834F835887B9E0EB2EF12CEC0E0B
:101AF000FD1ECE010196B7010E9433108E010F5ECC
:101B00001F4FCE010596B8010E943310298522305F
:101B100008F47EC03989323010F4B8017CC08A855F
:101B20009A8989278A87243011F0223031F42317CB
:101B300009F06EC061E072E06EC0343039F41D8689
:101B40001E861F86188A1C861B8604C0323021F42C
:101B500084E08987B7015FC02B853C858B899C8990
:101B6000281B390B3C872B87ED84FE840F85188951
:101B7000AD88BE88CF88D88CEA14FB040C051D05FF
:101B800040F4EE0CFF1C001F111F215030403C8719
:101B90002B8720E030E040E050E080E090E0A0E0E3
:101BA000B0E460E070E0EA14FB040C051D0540F0B1
:101BB000282B392B4A2B5B2BEA18FB080C091D0933
:101BC000B695A79597958795EE0CFF1C001F111FE2
:101BD0006F5F7F4F6F31710531F7DA01C9018F7780
:101BE0009070A070B07080349105A105B10561F4CA
:101BF00027FD0AC0E114F1040105110529F0205C5C
:101C00003F4F4F4F5F4F20782D873E874F87588B30
:101C1000BE01675F7F4FCB010E945E0F6896EAE0CE
:101C20000C943C11A8E1B0E0E8E1FEE00C94241132
:101C300069837A838B839C832D833E834F8358876C
:101C400089E0E82EF12CEC0EFD1ECE010196B701C5
:101C50000E9433108E010F5E1F4FCE010596B80112
:101C60000E9433108985823040F08989823028F0C3
:101C7000C701B8010E94AB1001C08FEF6896E6E083
:101C80000C944011ACE0B0E0E8E4FEE00C942811C4
:101C900069837A838B839C83CE010196BE016B5F3F
:101CA0007F4F0E9433108D81823061F1823050F17C
:101CB000843021F48E81882351F12EC02F81388504
:101CC00037FD20C06E812F3131051CF06623F9F0FD
:101CD00023C08EE190E0821B930B29853A854B85CA
:101CE0005C8504C056954795379527958A95D2F718
:101CF0006623B1F050954095309521953F4F4F4F59
:101D00005F4F0EC020E030E040E050E009C02FEF10
:101D10003FEF4FEF5FE704C020E030E040E050E8E5
:101D2000B901CA012C96E2E00C944411A8E0B0E09D
:101D3000ECE9FEE00C9420117B018C01611571052A
:101D40008105910519F482E0898360C083E089836D
:101D50008EE1C82ED12CDC82CB82ED82FE820F83F5
:101D60001887C801B7010E940F0FFC013197F7FFD8
:101D70003BC0222733272E1B3F0B57016801022E41
:101D800004C0D694C794B794A7940A94D2F740E0BD
:101D900050E060E070E081E090E0A0E0B0E004C0DE
:101DA000880F991FAA1FBB1F2A95D2F70197A10977
:101DB000B1098E219F21A023B1230097A105B10570
:101DC00021F041E050E060E070E04A295B296C2995
:101DD0007D294D835E836F8378878EE190E08E1B33
:101DE0009F0B9C838B8312C0309781F00E2E04C012
:101DF000EE0CFF1C001F111F0A94D2F7ED82FE8229
:101E00000F831887CE1ADF0ADC82CB821A82CE01BA
:101E100001960E945E0F2896EAE00C943C11EF9226
:101E2000FF920F931F937B018C0180E0E81680E006
:101E3000F80681E0080780E0180788F48FEFE816BD
:101E4000F1040105110531F028F088E090E0A0E0F0
:101E5000B0E017C080E090E0A0E0B0E012C080E009
:101E6000E81680E0F80680E0080781E0180728F00F
:101E700088E190E0A0E0B0E004C080E190E0A0E064
:101E8000B0E020E230E040E050E0281B390B4A0B84
:101E90005B0B04C016950795F794E7948A95D2F7E3
:101EA000F701E75FFD4F8081281B31094109510986
:101EB000C9011F910F91FF90EF900895DF92EF926B
:101EC000FF920F931F93FC01E480F5800681178138
:101ED000D1808081823048F480E090E0A0E1B0E0E1
:101EE000E82AF92A0A2B1B2BA5C0843009F49FC0CD
:101EF000823021F4EE24FF24870105C0E114F104AF
:101F00000105110519F4E0E0F0E096C062817381EB
:101F10009FEF623879070CF05BC022E83FEF261B89
:101F2000370B2A3131052CF020E030E040E050E062
:101F30002AC0B801A701022E04C07695679557956F
:101F400047950A94D2F781E090E0A0E0B0E004C0A9
:101F5000880F991FAA1FBB1F2A95D2F70197A109C5
:101F6000B1098E219F21A023B1230097A105B105BE
:101F700021F081E090E0A0E0B0E09A01AB01282BD5
:101F8000392B4A2B5B2BDA01C9018F779070A07037
:101F9000B07080349105A105B10539F427FF09C05F
:101FA000205C3F4F4F4F5F4F04C0215C3F4F4F4F6E
:101FB0005F4FE0E0F0E02030A0E03A07A0E04A0701
:101FC000A0E45A0710F0E1E0F0E079018A0127C0AF
:101FD0006038710564F5FB01E158FF4FD801C70176
:101FE0008F779070A070B07080349105A105B10515
:101FF00039F4E7FE0DC080E490E0A0E0B0E004C05A
:102000008FE390E0A0E0B0E0E80EF91E0A1F1B1F6E
:1020100017FF05C016950795F794E794319687E06A
:1020200016950795F794E7948A95D1F705C0EE24A5
:10203000FF248701EFEFF0E06E2F67956627679525
:10204000902F9F77D794DD24D7948E2F8695492F94
:10205000462B582F5D29B701CA011F910F91FF90A0
:10206000EF90DF900895FC01DB01408151812281D6
:10207000622F6F7770E0221F2227221F9381892F02
:10208000880F822B282F30E0991F9927991F1196CE
:102090009C93119721153105A9F54115510561054D
:1020A000710511F482E037C082E89FEF13969C938C
:1020B0008E9312979A01AB0167E0220F331F441FE2
:1020C000551F6A95D1F783E08C930DC0220F331F03
:1020D000441F551F12968D919C911397019713964B
:1020E0009C938E931297203080E0380780E0480759
:1020F00080E4580758F314962D933D934D935C93C9
:10210000179708952F3F310579F441155105610561
:10211000710519F484E08C93089564FF03C081E095
:102120008C9312C01C9210C02F57304013963C93D2
:102130002E93129783E08C9387E0440F551F661F00
:10214000771F8A95D1F7706414964D935D936D93C4
:102150007C93179708951F93DC01FB019C919230AB
:1021600008F447C08081823008F443C0943051F4B1
:1021700011961C91843099F58181682F70E0611B64
:1021800071093FC0843021F0923031F48230B9F1CE
:102190008181882389F12DC011961C91119782307D
:1021A000F1F081811817D9F412962D913C91139773
:1021B000828193818217930794F028173907BCF026
:1021C00014968D919D910D90BC91A02D2481358107
:1021D00046815781281739074A075B0718F41123EE
:1021E00041F00AC082179307A407B50740F41123F2
:1021F00019F061E070E005C06FEF7FEF02C060E0B2
:1022000070E0CB011F910895AA1BBB1B51E107C0D1
:10221000AA1FBB1FA617B70710F0A61BB70B881F76
:10222000991F5A95A9F780959095BC01CD01089505
:102230002F923F924F925F926F927F928F929F92D6
:10224000AF92BF92CF92DF92EF92FF920F931F93C4
:10225000CF93DF93CDB7DEB7CA1BDB0B0FB6F89475
:10226000DEBF0FBECDBF19942A88398848885F84A5
:102270006E847D848C849B84AA84B984C884DF8026
:10228000EE80FD800C811B81AA81B981CE0FD11D0A
:102290000FB6F894DEBF0FBECDBFED010895F894E0
:0222A000FFCF6E
:1022A2000C00000000000000000001020203030312
:1022B20003040404040404040405050505050505D6
:1022C20005050505050505050506060606060606B5
:1022D200060606060606060606060606060606069C
:1022E2000606060606060606060707070707070785
:1022F200070707070707070707070707070707076C
:10230200070707070707070707070707070707075B
:10231200070707070707070707070707070707074B
:102322000707070707070707070808080808080834
:10233200080808080808080808080808080808081B
:10234200080808080808080808080808080808080B
:1023520008080808080808080808080808080808FB
:1023620008080808080808080808080808080808EB
:1023720008080808080808080808080808080808DB
:1023820008080808080808080808080808080808CB
:1023920008080808080808080808080808080808BB
:0A23A20008080808080808080800E9
:00000001FF
